:100000000C94BF040C9406050C9406050C9421274F
:100010000C9406050C9406050C9406050C94060534
:100020000C9406050C9406050C94312F0C940530A5
:100030000C94572A0C9406050C9406050C9406059E
:100040000C9406050C9406050C9406050C94060504
:100050000C9406050C94CA2A0C9406050C9406050B
:100060000C9406050C9406050C9406050C940605E4
:100070000C9406050C9406050C9406050C940605D4
:100080000C9406050C9406050C9406050C940605C4
:100090000C9406050C9406050C9406050C940605B4
:1000A0000C9406050C9406050C9406058081828349
:1000B0008485868788898A8B8C8D8E8F9091929388
:1000C00094A0A1A2A3A4A5A6A7A8A9AAABACADAED3
:1000D000AFB0B1B2B3B4C0C1C2C3C4C5C6C7C8C94A
:1000E000CACBCCCDCECFD0D1D2D3D40041646A75A7
:1000F0007374005261697365004C6F7765720044D8
:10010000656661756C74004C617965723A20000017
:100110005714001A000900130005000255040015C9
:1001200000095717000A002B001D00075705570745
:10013000000657000000000000015801552C000681
:10014000550A550457035702572A00280012000C7D
:10015000000F001100100003550855370036000B42
:10016000000E000000000000000258045508003A8C
:10017000003B003C003D003E003F0002551E001FBA
:10018000002000210049005000510052004F002281
:10019000004C00000000000000105011551455459F
:1001A000004400430042004100400008572600255B
:1001B00000240023004A000F000E000D000B002752
:1001C000004D0000000000000002581255185500B4
:1001D000000000000000000000000000005000517E
:1001E0000052004F00000000000000000000004B23
:1001F000000000000000000000015803512C000026
:10020000000000000000000000000000000F000ED1
:10021000000D000B00000000000000000000004E78
:10022000000000000000000000105001002800093C
:1002300000130000000F00280000000C0028000040
:10024000001D00160000001D0015000000210049DF
:1002500000000052004F0000005000510000000755
:1002600000160000000B000F00000011001200003B
:100270000004001700000011000C0000001700151A
:100280000000000B000C0000000700150000000C2F
:1002900000120000000400150000000F000C000018
:1002A0000015001600000011000F000000160017D6
:1002B00000000000AE00AF00DA0281FFD9F1DB20C0
:1002C000A4A62EAF00A0C000A1C800AED580A81F74
:1002D000D300408D1420000000000000003E5B4F62
:1002E0005B3E003E6B4F6B3E001C3E7C3E1C00188C
:1002F0003C7E3C18001C577D571C001C5E7F5E1C1A
:100300000000183C180000FFE7C3E7FF00001824B6
:10031000180000FFE7DBE7FF0030483A060E002632
:100320002979292600407F05050700407F05253FE4
:10033000005A3CE73C5A007F3E1C1C0800081C1C6D
:100340003E7F0014227F2214005F5F005F5F000683
:10035000097F017F00006689956A006060606060C7
:100360000094A2FFA2940008047E04080010207EDE
:1003700020100008082A1C0800081C2A0808001E73
:1003800010101010000C1E0C1E0C0030383E3830BF
:1003900000060E3E0E060000000000000000005F98
:1003A000000000000700070000147F147F140024E1
:1003B0002A7F2A120023130864620036495620500F
:1003C00000000807030000001C2241000000412239
:1003D0001C00002A1C7F1C2A0008083E0808000098
:1003E0008070300000080808080800000060600005
:1003F000002010080402003E5149453E0000427FA3
:100400004000007249494946002141494D330018D6
:1004100014127F10002745454539003C4A494931AF
:10042000004121110907003649494936004649492A
:10043000291E0000001400000000403400000000ED
:10044000081422410014141414140000412214084A
:10045000000201590906003E415D594E007C12110F
:10046000127C007F49494936003E41414122007FCC
:100470004141413E007F49494941007F0909090145
:10048000003E41415173007F0808087F0000417F12
:100490004100002040413F01007F08142241007FBD
:1004A00040404040007F021C027F007F0408107F14
:1004B000003E4141413E007F09090906003E41518D
:1004C000215E007F09192946002649494932000367
:1004D000017F0103003F4040403F001F2040201F9C
:1004E000003F4038403F0063140814630003047861
:1004F0000403006159494D4300007F41414100021E
:100500000408102000004141417F00040201020460
:1005100000404040404000000307080000205454C1
:100520007840007F28444438003844444428003848
:100530004444287F0038545454180000087E0902AF
:10054000001824241C78007F080404780000447DEF
:100550004000002040403D00007F10284400000083
:10056000417F4000007C04780478007C0804047813
:10057000003844444438007C1824241800182424EB
:10058000187C007C080404080048545454240004D7
:10059000043F4424003C4040207C001C2040201CA0
:1005A000003C4030403C004428102844004C9090CF
:1005B000907C004464544C44000008364100000024
:1005C000007700000000413608000002010204022A
:1005D000003C2623263C0000000000000000000034
:1005E00000000000000000C0E0F0F8F81800C0F0C3
:1005F000FCFEFFFFFFFFFFFFFF7E0000000000008A
:1006000000000080C0E0E0E0E0E0E0E0E0C080006A
:1006100000000080C0E0E0E0E0E0E0E0E0C080005A
:100620000000E0E0C0C0E0E0E0E00000E0E0C0C0CA
:10063000E0E0E0E0E0C0800000000080C0E0E0E03A
:10064000E0E0E0E0E0C0800000000000000000000A
:100650000000000000E0F0F0F0E0ECEEF7F37020B6
:10066000007C7C7C7E007E7E7E7F7F7F000080C061
:10067000E07E5B4F5BFEC00000C000DCD7DEDEDE4C
:10068000D7DC00C0000000000000000000000000F7
:10069000000000000000000000000000000000005A
:1006A000F8FCFEFFE000FFFFFFFFFFFF80FFFFFF02
:1006B000FFFFFFFFFFFF1F07010000000000000019
:1006C0000000FFFFFF8100000000000081C3C3C3E2
:1006D0000000FFFFFF8100000000000081FFFFFF1E
:1006E0000000FFFFFF01000000000000FFFFFF010E
:1006F0000000000001FFFFFF0000FFFFFF9D1C1C2A
:100700001C1C1C1C9DDFDFDF00000000000000003F
:1007100000000000000F1F3F7F7F7F7F7F3F1E0C88
:10072000001F1F1F3F003F3F3F7F7F7F00307B7FC9
:100730007830202030787F3B0003000F7F0F0F0FB1
:100740007F0F000300000000000000000000000018
:100750000000000000000000000000000000000099
:10076000030F1F3F3F3F3F1F1F3F3F7F7F7F3F3FA5
:100770001F3F7F7F7F7F7C7878381C0F0000000050
:100780000000000103070707070707070703010029
:100790000000000103070707070707070703010019
:1007A000000007070700000000000000070707001F
:1007B000000000000007070700000001030707070B
:1007C0000707070707030100000000000000000002
:1007D0000000000000000000000000000000000019
:1007E0000000000000000000000000000000000009
:1007F00000000000000000000000000000000000F9
:1008000000000000000000000000000000000000E8
:10081000000000000000000C0343006F0072006E37
:100820000065000000100366006F006F0073007425
:100830000061006E0000000403090409023B00028D
:100840000100A0FA090400000103010100092111BF
:100850000100012240000705810308000A09040184
:1008600000010300000009211101000122B6000768
:1008700005820320000A120100020000000853460E
:10088000010001000102000105010902A101850228
:100890000901A1000509190129081500250195087C
:1008A000750181020501093009311581257F950205
:1008B0007508810609381581257F9501750881061F
:1008C000050C0A38021581257F950175088106C03F
:1008D000C005010980A101850319012AB70015018E
:1008E00026B700950175108100C0050C0901A10112
:1008F000850419012AA002150126A0029501751090
:100900008100C005010906A1018505050719E02937
:10091000E7150025019508750181020507190029D1
:10092000EF1500250195F0750181020508190129CF
:1009300005950575019102950175039101C00501A9
:100940000906A101050719E029E715002501950809
:10095000750181029501750881010507190029FFBC
:10096000150026FF00950675088100050819012964
:1009700005950575019102950175039101C011243A
:100980001FBECFEFDAE0DEBFCDBF04B603FE27C047
:100990008091950790919607A0919707B09198073D
:1009A0008730904BA740B04BD1F41092950710922E
:1009B0009607109297071092980714BE84B7877F06
:1009C00084BF0FB6F894A8958091600088618093E9
:1009D0006000109260000FBEE0E0F8E3099513E0BC
:1009E000A0E0B1E0EEEDFAE602C005900D92A43A67
:1009F000B107D9F727E0A4EAB3E001C01D92A539F9
:100A0000B207E1F70E9492180C943A350C9400005A
:100A10000F931F93CF93DF93EC018B018881833079
:100A200061F4FB01828193810E946F06F80182814B
:100A300093810E94400681E08B87DF91CF911F91C7
:100A40000F910895CF93DF93EB01FC0180818130FA
:100A500031F488819981DF91CF910C9440068230E6
:100A600019F48A819B81F7CF833029F48A819B8195
:100A70000E946F06F6CFDF91CF910895CF93DF9359
:100A8000EC018881833039F4FB01828193810E94DB
:100A9000400681E08B87DF91CF910895CF93DF935C
:100AA000EB01FC018081813031F488819981DF91F3
:100AB000CF910C944006823029F4888199810E945C
:100AC0006F06F3CF833019F48A819B81F0CFDF91D9
:100AD000CF910895FC018081813029F4FB01808150
:100AE00091810C9457068250823020F4FB01828160
:100AF0009381F7CF0895FC0180819FEF980F92308A
:100B000028F4FB01808191810C945706833021F4F5
:100B1000FB0182819381F8CF0895CF93C82F0E9463
:100B20005F16811101C0C2E08C2FCF91089560E063
:100B300087E091E00E94CA1C8091DD039091DE0362
:100B4000A091DF03B091E0038F309105A105B105BD
:100B5000B0F4FC01E45CFA4C0C94FD3160E08FEFE2
:100B600090E00C94DC1C60E089EF90E0FACF60E04C
:100B700083EF90E0F6CF60E08CEE90E0F2CF089546
:100B80009C013056211540E2340720F0305E2115DB
:100B9000304108F4992720E28C33910520F4FC01C0
:100BA000E251FD4F20811F922F939F938F93FB0162
:100BB00080811F928F9381811F928F938DED92E0A0
:100BC0009F938F931F9288E18F9386EA93E09F9380
:100BD0008F930E9422328DB79EB70E960FB6F8946F
:100BE0009EBF0FBE8DBF089560E086EA93E00C942F
:100BF000AE1C60E08CEA90E00C94CA1C0E945F1668
:100C0000882321F00E9497050C94F4050C94F905B3
:100C1000FB01228121110E94C00581E008959C0101
:100C20003A9521153F4150F5FC01EE27F170BC01CA
:100C300066277270AC01442754709C0122273870DB
:100C400094FF0EC080E1EF2B09F480E0672B09F0E0
:100C50008062452B09F08064232B89F08068089519
:100C600081E0EF2B09F480E0672B09F08260452BCF
:100C700009F08460232B19F08860089580E00895BE
:100C8000CF93DF93EC010E940F069E01205E310995
:100C90002830310510F0209739F40E9442088C2F3B
:100CA000DF91CF910C94A6070E949F0AF8CFCF93B3
:100CB000DF93EC010E94F407CE010E940F069E0113
:100CC000205E31092830310510F0CD2B21F4DF9161
:100CD000CF910C944908DF91CF910C94A60ACF9341
:100CE000DF93EC010E944006CE01DF91CF910C947E
:100CF000570681E008950C94080608950C947D062B
:100D00001F93CF93DF9300D000D00F92CDB7DEB703
:100D100049835A836B833091BE0389819A81311153
:100D20001DC06623B9F02223A9F00E947B0C182F66
:100D3000682F89819A810E94240C69817A81812F90
:100D40000F900F900F900F900F90DF91CF911F9108
:100D50000C946C130E94520C182FEFCF0E947B0C46
:100D600069817A81EDCFFC01262F868197810097DA
:100D700039F4408151816281738184810C948006B1
:100D80000895CF93DF93EC0161E00E94B306BE01AA
:100D9000DF91CF910C942422CF93DF93EC0160E09C
:100DA0000E94B306BE01DF91CF910C947E060E9493
:100DB0007E140E9456070C94A3140E9423250E94BF
:100DC000E0210C94A61408950E94C30A0E94E30631
:100DD0002FEF84E39CE0215080409040E1F700C079
:100DE00000000C94EE2A0F931F93CF93DF938C0196
:100DF00061E00E94B306EC01B8010E948124B801B1
:100E0000CE010E947B068823D9F1B801CE010E9451
:100E1000C9248823A9F1B801CE010E94BE1E8823EF
:100E200079F1B801CE010E94101F882349F1B80161
:100E3000CE010E943320882319F1F8018281882392
:100E400061F0CB35FDE5DF0721F170F4C115ECE56C
:100E5000DE07A1F0CF3DDC45C9F0C801DF91CF919D
:100E60001F910F910C947906CC358DE5D807A1F030
:100E7000CD35DD4591F70E941910EFCF0E94E406B1
:100E800080E0DF91CF911F910F9108950E9486110C
:100E9000F7CF0E942210E1CF0E942510DECF0895E7
:100EA0000C944F0781E008950C9452070895CF9356
:100EB000C82F0E9450078C2FCF910C945407CF93CA
:100EC000DF93CDB7DEB72D970FB6F894DEBF0FBE18
:100ED000CDBF49875A876B877C878D8761110E94B8
:100EE0004B101D821E821F82188685E0FE013996F6
:100EF000DE01119601900D928A95E1F78C819D811A
:100F0000892B99F429813A814B815C816D817E81A5
:100F10008F8198850E94420F2D960FB6F894DEBF00
:100F20000FBECDBFDF91CF91089589819A8189232A
:100F30008F3F41F3CE0101960E94C1068111E2CF9D
:100F4000EBCFFC01808191810C94BD0CCF93C82F15
:100F5000882309F447C08CEF8C0F813AA0F46C2FE2
:100F600080919E0290919F020E941B29882329F064
:100F70008C2F0E94E90F0E946E108C2F0E94E20FAE
:100F8000CF910C946E1080E28C0F883048F4C770BB
:100F900081E001C0880FCA95EAF70E942B10F0CFBC
:100FA000EBE5EC0FE33040F4F0E0E85AFC4F8081D1
:100FB00090E0CF910C94DB28E8E5EC0FE73150F49A
:100FC000F0E0EE0FFF1FE65DFC4F80819181CF9135
:100FD0000C94F128CD3E30F08C2F0E942019CF9137
:100FE0000C94F319CF910895882361F19CEF980F29
:100FF000913A20F40E94E90F0C946E1090E2980F41
:10100000983050F4877091E001C0990F8A95EAF703
:10101000892F0E943110F0CF9BE5980F933020F478
:1010200090E080E00C94DB2898E5980F973120F44D
:1010300090E080E00C94F1288D3E20F00E947A1917
:101040000C94F31908951F93CF93DF93182FEB019E
:101050000E94A607209731F4812FDF91CF911F9135
:101060000C94F4078FE99FE00197F1F700C00000AE
:101070002197F0CF70E060E0893311F460E570E013
:101080000C942308882321F00E942B100C946E10DE
:101090000895882321F00E9431100C946E10089559
:1010A000BF92CF92DF92EF92FF920F931F93CF9355
:1010B000DF936C01D62FC72FFC01128105810295A9
:1010C0000F700E940010E82E8823A1F0E12E11235A
:1010D00089F08C2F807F803429F080E28D0FE12C05
:1010E000883040F082E00E94BF100E94001091E022
:1010F000E82EE926BC2EB2949FE0B922FBE0FB1556
:1011000098F1EB2DF0E0E55BFA4C0C94FD310C2FDF
:101110000F70C07F11F00295007F1123A9F000230A
:1011200059F080E28D0F883010F0D11109C0802F66
:101130000E942B100E946E108D2F0E94A60714C0D3
:10114000802F0E943E10F6CF8D2F0E94F4070023BF
:1011500059F080E28D0F883010F0D1112CC0802F13
:101160000E9431100E946E102B2D2850330B24301A
:10117000310520F40E94A0280E945707EE2009F4B0
:101180008EC10E94FC0F80FD8AC1F60112820E946E
:10119000F60F0E94880BC6010E94770A0E94F60F84
:1011A000DF91CF911F910F91FF90EF90DF90CF9043
:1011B000BF900C94A90B802F0E944410D3CF2C2FEA
:1011C0002F70F22EC07FC03219F0F29480EFF82217
:1011D000DD2369F0D13049F1112391F1002351F160
:1011E000F601858180FFA8CF8F70858323C01123EE
:1011F00081F0011106C00E9451108F290E944208FF
:10120000B3CF0130C1F70E9451108F290E945710AF
:10121000ABCF011106C00E9464108F2D0E944908B7
:10122000A3CF013009F4A0CFF6CF112329F003306A
:1012300008F09ACF8F2DE2CF023008F095CFEDCF96
:10124000002359F3D93349F4FFEF27EE33E0F1508F
:1012500020403040E1F700C000008D2F0E94F407CD
:1012600083CF8C2F86958695837069F0813009F045
:101270007BCF8D2F9C2F9370111102C090E080E0E6
:101280000E94F12871CF8D2F9C2F9370111102C0F5
:1012900090E080E00E94DB2867CF8D2F112329F09A
:1012A0000E9420190E94F3195FCF0E947A19FACF89
:1012B0008C2F837009F041C0111156CF4D2F4295EC
:1012C00046954770440F440F0D2F0F7010E030E02B
:1012D00020E0042E04C0000F111F221F331F0A94A8
:1012E000D2F760E070E0CB01D4FF0FC06FE070E098
:1012F00080E090E004C0660F771F881F991F4A9511
:10130000D2F76095709580959095C695C695C370F7
:10131000602B712B822B932BC23049F058F4C130D3
:1013200019F00E943A0B20CF0E94280B1DCF0E947B
:101330004C0B1ACF0E94260B17CF8695112311F064
:101340008C2F8170882309F40FCF4D2F429546953D
:101350004770440F440F0D2F0F7010E030E020E075
:10136000042E04C0000F111F221F331F0A94D2F74E
:1013700060E070E0CB01D4FF0FC06FE070E080E070
:1013800090E004C0660F771F881F991F4A95D2F717
:101390006095709580959095C695C695C370602BA5
:1013A000712B822B932BC23049F058F4C13019F0C5
:1013B0000E94FF0BD9CE0E94ED0BD6CE0E94110CDD
:1013C000D3CE0E94620BD0CECF70112329F08C2F88
:1013D0000E94880B8D2F12CF8D2F0E9449088C2FD1
:1013E0000E94A90BC1CED23F89F160F4D03FC9F071
:1013F000D13F29F1112309F442C001119DCE8C2F58
:101400008F7121C0D33F39F1D43FA1F7112369F186
:10141000CF718C2F0E94880B63E08C2F0E94A41048
:10142000A3CE112341F0023008F09ECE8C2F8F7195
:101430000E94CC0B99CE033008F096CEF7CF8C2FBC
:101440008F71112369F20E94880B8ECE8C2F8F71C1
:101450001123C9F3C5CF112329F08C2F8F710E945E
:10146000730B82CE0E946E0B7FCE81E00E94BF1074
:10147000023008F479CE82E00E94BF1075CE0023BE
:1014800059F0D93309F0E9CE8FEF97EEE3E08150C0
:101490009040E040E1F7DFCE8C2F8F71A1CFDF913C
:1014A000CF911F910F91FF90EF90DF90CF90BF9061
:1014B00008950F931F93CF93DF93EC018E819F814B
:1014C000009779F00E9474128C010E94230C0E94F4
:1014D000250BB801CE01DF91CF911F910F910C9494
:1014E0005008688179818A810E94C70CEDCFCF9323
:1014F000DF93EC018B819C81892B29F08881998174
:1015000089238F3F59F4DF91CF910895CE010E9436
:10151000590ACE01DF91CF910C94CC06CE010E94E6
:10152000F3068111F3CF0E940010882361F38A81B2
:10153000882349F382E0DF91CF910C94BF10882378
:1015400021F00E943E100C946E100895882321F023
:101550000E9444100C946E10089590E080E00E9468
:10156000DB2890E080E00E94F1280E944B100E944E
:101570004E100E946E100E941A1B0C94F3190E94C8
:10158000F00F0C94AD0A0E9438100C94BF0AE92F9A
:10159000E295EF70E250EE3070F4F0E0E95AFA4C68
:1015A0000C94FD31803F19F020F4883E20F481E056
:1015B0000895843FE1F380E00895883EC0F3813FC1
:1015C000D1F7F5CF93FB882780F90895FC01868138
:1015D0009781009721F00E9474120C94C70A8081B1
:1015E00091810E94BD0CF9CFCF93DF9300D000D042
:1015F0000F92CDB7DEB70F900F900F900F900F9016
:10160000DF91CF910895CF93DF93CDB7DEB72897C1
:101610000FB6F894DEBF0FBECDBF28960FB6F89474
:10162000DEBF0FBECDBFDF91CF91089508950C941A
:10163000160B0E94170B6093E1037093E2038093F3
:10164000E3039093E4030C94AD0A08950C94190BF2
:101650000F931F930091E1031091E2032091E303A4
:101660003091E403602B712B822B932B1F910F91F0
:101670000C94190B0F931F930091E1031091E20357
:101680002091E3033091E4036023712382239323A9
:101690001F910F910C94190B0F931F930091E1036D
:1016A0001091E2032091E3033091E4036027712756
:1016B000822793271F910F910C94190B0C94160BF2
:1016C0000C945E0B0E94600B6093DD037093DE034D
:1016D0008093DF039093E0030C94AD0A60E070E028
:1016E000CB010C94620B0F931F9341E050E060E03C
:1016F00070E08A019B0104C0000F111F221F331FDD
:101700008A95D2F7C901B8011F910F910C94620B11
:101710000F931F9341E050E060E070E004C0440F7D
:10172000551F661F771F8A95D2F78091DD03909130
:10173000DE03A091DF03B091E0038A019B01082B37
:10174000192B2A2B3B2BC901B8011F910F910C9427
:10175000620B0F931F9341E050E060E070E004C023
:10176000440F551F661F771F8A95D2F7CB01BA0128
:1017700060957095809590950091DD031091DE0342
:101780002091DF033091E0036023712382239323B0
:101790001F910F910C94620B0F931F9341E050E047
:1017A00060E070E004C0440F551F661F771F8A95E4
:1017B000D2F78091DD039091DE03A091DF03B09119
:1017C000E0038A019B01082719272A273B27C90123
:1017D000B8011F910F910C94620B0F931F9300910E
:1017E000DD031091DE032091DF033091E003602BD5
:1017F000712B822B932B1F910F910C94620B0F93E3
:101800001F930091DD031091DE032091DF033091DF
:10181000E00360237123822393231F910F910C9483
:10182000620B0F931F930091DD031091DE03209153
:10183000DF033091E00360277127822793271F91F0
:101840000F910C94620B0895E92FEE0FE90FEE0F44
:101850008E0F982F977041E001C0440F9A95EAF7D8
:1018600086958695869595E0899FF0011124E1542F
:10187000FC4F30E020E070E05191DF011197CB0187
:10188000022E02C0969587950A94E2F781708195A1
:101890008527842385278C932F5F3F4F2530310583
:1018A00059F70895E92FEE0FE90FEE0F8E0F982FDD
:1018B000977086958695869525E0829FF001112484
:1018C000E154FC4F50E040E080E0219130E0092EEF
:1018D00002C0369527950A94E2F721703327042E2B
:1018E00001C0220F0A94EAF7822B4F5F5F4F453009
:1018F000510559F70895BF92CF92DF92EF92FF9270
:101900000F931F93CF93DF938C01C090DD03D09092
:10191000DE03E090DF03F090E0038091E10390911B
:10192000E203A091E303B091E403C82AD92AEA2A8A
:10193000FB2ACFE1D0E0BC2ED701C6010C2E04C09B
:10194000B695A795979587950A94D2F780FD0EC016
:10195000219788F7B12C8B2DDF91CF911F910F919B
:10196000FF90EF90DF90CF90BF900895B8018C2F3B
:101970000E948013019761F3EECFCF93DF93EC01C8
:101980000E947B0CBE01DF91CF910C9480131F93BA
:10199000CF93DF93EB019091BE03992331F0CB01FC
:1019A000DF91CF911F910C94BD0C882379F0CB016E
:1019B0000E947B0C182F682FCE010E94240CBE01C0
:1019C000812FDF91CF911F910C948013CB010E9446
:1019D000520C182FF4CFCF93DF93C091E503809181
:1019E000E6038C1303C0DF91CF910895D0E0FE0190
:1019F00083E0EE0FFF1F8A95E1F7E951FC4F20814C
:101A000031814281538164817581868197810E94F1
:101A1000030B2196C770E3CF20912704309128044F
:101A20004091290450912A0460912B0470912C0458
:101A300080912D0490912E040C94030BCF93DF938F
:101A400080912C04807FA1F480912904882381F067
:101A50008091E503C091E60360912704709128040A
:101A6000A0912A04B0912B04D62FD723C81303C00A
:101A7000DF91CF91089590E0109711F0DF3F19F4B6
:101A800001968770F3CF9C0143E0220F331F4A95E4
:101A9000E1F7F901E951FC4F41814713F1CF408152
:101AA0004613EECF42814111EBCF438154814A1B53
:101AB0005B0B443B510520F780912C048F708061B3
:101AC00080932C04F901E451FC4F80818F70806178
:101AD000808387E294E00E94770ADF91CF910C9493
:101AE000EB0CAF92BF92CF92DF92EF92FF920F93E7
:101AF0001F93CF93DF93CDB7DEB765970FB6F894FA
:101B0000DEBF0FBECDBF8C0185E0F801DE0151962E
:101B100001900D928A95E1F7F801E28047E2C42E28
:101B200044E0D42E60912A0470912B046115710554
:101B300009F48CC19091270420912804892F8223D5
:101B40008F3F09F483C140815181A380B480F0901C
:101B50002904F501E61BF70BFF2009F42CC1809145
:101B60002C04382F307FE43BF10508F0D6C031114A
:101B700083C0FE2C25132DC094132BC060912D041F
:101B800070912E04F801268137816217730709F5D9
:101B9000E1101FC08F70806180932C040E940C0D97
:101BA000C6010E94770A80912C04F80185838F2D4D
:101BB00065960FB6F894DEBF0FBECDBFDF91CF9113
:101BC0001F910F91FF90EF90DF90CF90BF90AF905B
:101BD0000895AB2829F0842F85238F3F09F04FC14A
:101BE00080E0F82FF170DF2E80FF3CC08091E5038C
:101BF0002091E603821315C0498B5A8B89899A89F3
:101C00000E94BD0C292F22952F702230F8F024302D
:101C100020F59F70F9F0F8019581907FD9F4D12CCF
:101C20001FC090E0FC0133E0EE0FFF1F3A95E1F793
:101C3000E951FC4F3181351306C03081341303C0A4
:101C400032813E110FC001968770D4CF9F7011F082
:101C5000882329F3805E883010F3C8010E94770A38
:101C6000FD2CA5CFEE2009F4A2CF80912C04816039
:101C700080932C04F12C9BCF25131DC094131BC003
:101C800040912D0450912E04F8012681378142178E
:101C9000530789F4E1100FC08583C8010E94770AB9
:101CA00088E0F801A7E2B4E001900D928A95E1F78F
:101CB0000E940C0D7CCFC8010E94E60A882349F1DE
:101CC000EE2039F180912C048032A0F0209127047D
:101CD000309128043A8729871B86BD86AC868E877B
:101CE00080912D0490912E04988B8F87CE010996B8
:101CF0000E94770A88E0F801A7E2B4E001900D9213
:101D00008A95E1F70E941E0D0E940C0DFF24F394AA
:101D10004ECFC8010E94770AF9CF311113C07A2D36
:101D2000BD8AAC8A6E2D8D890E94F40A87E294E008
:101D30000E94770A88E0F60111928A95E9F70E94DD
:101D40000C0D98CF251318C0941316C040912D0484
:101D500050912E04F801268137814217530761F410
:101D6000E1100AC08583C8010E94770A88E0F60165
:101D700011928A95E9F71BCFC8010E94E60A8823D1
:101D800041F2EE2031F280912C04803208F4B2CF7F
:101D900020912704309128043A8329831B82BD8235
:101DA000AC828E8380912D0490912E0498878F832E
:101DB000CE0101969DCFE43BF105D8F5FE2CEE2037
:101DC00009F4A7CF251327C0941325C020912D0413
:101DD00030912E04F8018681978128173907D9F4AC
:101DE00090912C0490FD0EC0907F61F080912C04A6
:101DF0008583903F09F451CF982F907F905F8F702B
:101E0000892B4ACF88E0F801A7E2B4E001900D9257
:101E10008A95E1F7CCCEC8010E94E60A81116ACF0B
:101E200080912C04816080932C04C8010E94770A61
:101E3000BECE7A2DBD8AAC8A6E2D8D890E94F40AA1
:101E400088E0F60111928A95E9F732CFEE2009F485
:101E500060CFC8010E94E60AF82E882309F459CF02
:101E600088E0F801A7E2B4E001900D928A95E1F7CD
:101E700087E294E00E94A1070E941E0D19CF81E025
:101E80008E25AFCECF93DF93CDB7DEB760970FB679
:101E9000F894DEBF0FBECDBF29873A874B875C879A
:101EA0006D877E878F87988BCE0109960E94710D72
:101EB0008823D1F08C859D85892B39F029853A8539
:101EC000822F83238F3F09F074C08091E5039091A6
:101ED000E603891348C060960FB6F894DEBF0FBEC4
:101EE000CDBFDF91CF91089588E0FE013996DE01E4
:101EF000119601900D928A95E1F78C859D85892B2D
:101F000021F389859A8589238F3FF9F2A091E60311
:101F1000B0E0CD010196877099272091E50328173D
:101F2000190671F40E94C30A1092E6031092E503A9
:101F300088E0E7E2F4E0DF011D928A95E9F7C5CF7A
:101F400093E0AA0FBB1F9A95E1F7A951BC4F98E007
:101F5000FE01319601900D929A95E1F78093E60388
:101F60000E94EB0CB2CFB8E08B9FC00111248951C5
:101F70009C4F0E94710D882309F4ADCFE091E503D9
:101F800028E0E29FF0011124E951FC4F20813181CA
:101F90004281538164817581868197810E94030B00
:101FA0008091E50390E00196877099278093E5037F
:101FB0008CCF4B855C856D857E858F8598890E9449
:101FC000030B83CF682F80919E0290919F020C9407
:101FD0009B29682F80919E0290919F020C94A629C4
:101FE00080919E0290919F020C94B12980912F04C0
:101FF000859585958595089580912F04877008951E
:1020000090912F04977081E009F480E008959091F9
:10201000640592FB222720F9281751F080FB92F9E2
:102020009093640580916305909164050C9402116E
:1020300008958091640582FB882780F991E08927C3
:102040000C94071081E00C94071080E00C940710AA
:1020500080915304089590915304892B80935304E5
:102060000895809590915304982390935304089574
:10207000109253040895809152040895909152044F
:10208000892B80935204089580959091520498234F
:10209000909352040895109252040895109251049E
:1020A000089580913004089508950C9454109091EF
:1020B000640592FD08C090913004981721F0809338
:1020C00030040C945510089580913004882329F031
:1020D0001092300480E00C9455100895E0919E0217
:1020E000F0919F02809153048083E0919E02F091D1
:1020F0009F02808190915204892B8083E0919E02FF
:10210000F0919F02808190915104892B808390915E
:102110003004992381F0E0919E02F0919F0280812A
:10212000892B808380919E0290919F020E940729B3
:1021300081110E94641080919E0290919F020C94E4
:10214000B32808950C94A1109091640592FD10C0DD
:1021500098E0899F90011124622B60932F040E94C4
:10216000880B80912F048595859585950C94A210F8
:102170000C94880B10922F0480E00C94A210909184
:102180002F048095892380932F04282F277039F4FA
:10219000282F082E000C330B9217130621F4909170
:1021A000640592FF07C08595859585950E94A90BCA
:1021B0000C94BA1008956FEF7FEF90E080E00C94DC
:1021C000ED3490E080E00E94C93421E0893E9E4FCA
:1021D00009F020E0822F089582E090E00C94C13451
:1021E00083E090E00C94C134CF9384E090E00E94AF
:1021F000C134C82F82E290E00E94C134982F8C2F06
:10220000CF910895CF93C92F682F84E090E00E946A
:10221000CF346C2F82E290E0CF910C94CF34AB019D
:10222000BC018FE090E00C94E134AB01BC0183E190
:1022300090E00C94E13460E070E0CB010C94151157
:1022400060E070E0CB010E940F110C941B1169EE4D
:102250007EEF90E080E00E94ED3460E082E090E06C
:102260000E94CF3460E083E090E00E94CF3410926F
:10227000E1031092E2031092E3031092E40360E0A2
:1022800084E090E00E94CF3460E082E290E00E941F
:10229000CF3460E085E090E00E94CF3460E086E0DB
:1022A00090E00E94CF346FEF87E090E00E94CF343F
:1022B00040E050E0BA0188E090E00E94E13460E044
:1022C0008DE090E00E94CF3440E050E0BA0188E118
:1022D00090E00E94E13460E087E190E00E94CF341A
:1022E00040E050E0BA018CE190E00E94E13470E0FF
:1022F00060E080E290E00E94ED3440E050E0BA01FE
:1023000088E190E00E94E1340C9420110C94271194
:10231000682F8EE090E00C94CF340E94932A609353
:1023200061047093620480936304909364046093E7
:102330005D0470935E0480935F049093600408953D
:1023400085B7806885BF85B7806885BF0895089583
:1023500008950C94A71108950C94AB110E94A0113C
:102360008EE594E10E94FF2A0E94A8110C94A91105
:102370000C945F16089508950E94BA110C94BB1135
:102380000E947E2A0E94C3290E9458150E94281B81
:1023900080E00E94851B0C94AC119F92AF92BF927B
:1023A000CF92DF92EF92FF920F931F93CF93DF9321
:1023B000CDB7DEB72A970FB6F894DEBF0FBECDBFFC
:1023C0000E94D515C82E81110E948D1185E5A82E79
:1023D00084E0B82E10E000E0902E802F0E94A81418
:1023E000E82EF501F1905F01F81609F454C08091D0
:1023F000650481FD0E94AE148F2D8E25D12CFF2403
:10240000F394982F9F2109F441C00E94B8118823AA
:1024100099F0DE829F82EF2081E009F480E08887D6
:102420000E94872A8160782F9A8789874E815F81F1
:1024300068858A850E945F07F801EB5AFB4F80810F
:10244000F826F0820E94181EC1100E94E11C0E9412
:102450000E1A0E94A02890915404891799F10E94A5
:10246000A028809354042A960FB6F894DEBF0FBEBE
:10247000CDBFDF91CF911F910F91FF90EF90DF9033
:10248000CF90BF90AF909F900C945707D394FF0CC0
:10249000F6E0DF12B6CF0F5F1F4F0830110509F0CD
:1024A0009BCF8FEF89838A831B820E94872A81605A
:1024B000782F9D838C8349815A816B818D810E9405
:1024C0005F07C0CF2A960FB6F894DEBF0FBECDBF10
:1024D000DF91CF911F910F91FF90EF90DF90CF9000
:1024E000BF90AF909F900895CF93DF930E94841385
:1024F000EC01811521E5920708F042C0811530E515
:10250000930708F09DC0883E910530F5803E910507
:1025100008F092C0883A910588F4853A910508F050
:1025200084C08130910509F487C0009709F484C004
:10253000049708F081C0D0E0C0E07EC08F3B9105D9
:10254000D0F7C85AD0E0CC0FDD1FC55ADC4F099038
:10255000D881C02DD46470C08115904250F4C1154B
:1025600081E0D80708F068C0CD3ED10520F3D065E2
:1025700063C0C11590E4D907F0F2DF70D06A5CC087
:10258000811525E5920700F5811534E5930708F0DC
:102590008BC0811543E5940708F073C0C11582E52F
:1025A000D80708F469C0CE018370992721E030E094
:1025B00002C0220F331F8A95E2F7C695C69580E2C6
:1025C000C89FE001112454C0C11599E5D907A8F4AA
:1025D000C11528E5D20708F06CC0C11536E5D30750
:1025E00008F0A9CF8C2F0E941B14C82FD0E0DC2F3D
:1025F000CC27CC27DF71D0621FC0C1154AE5D407B4
:1026000008F45CC0CE0190568115904208F093CF3B
:102610008D2F8F710E941B1490E0982F8827882798
:102620009F719C012C2BE901E6CFC55AD0E0C7571A
:10263000DC4FC881D0E0D064CE01DF91CF91089506
:10264000E4E096958795EA95E1F783702C2F26951F
:102650002695237040E2249F90011124382B8C2F63
:102660008370C1E0D0E002C0CC0FDD1F8A95E2F795
:10267000C22BD32BDC68E0CFDC2FCC27C16FD06A14
:10268000DBCF8370992721E030E002C0220F331F97
:102690008A95E2F7C695C69590E2C99FE00111249C
:1026A000C22BD32BDA68C8CFD82FCC27C46FD06AFF
:1026B000C3CFDC2FCC27C06FD06ABECF8C2F8F70DA
:1026C0000E941B1434E0D695C7953A95E1F7CF7078
:1026D0009C2FEC01D069B0CF972F70E026E0929F3D
:1026E000600D711D1124FB0190E3899FE00DF11D28
:1026F0001124EE0FFF1FE15FFE4F85919491089525
:102700000E946C130C94741282389105B1F1B0F4EC
:102710008133910509F475C048F48932910509F4B3
:1027200069C08A32910509F473C008958533910513
:1027300009F459C08933910501F10895833E91054B
:10274000A9F138F4803E9105F9F0823E910549F1F6
:102750000895863E9105A9F1873E9105C9F1843E11
:10276000910519F52091640521FF1FC08091630533
:1027700084FD14C087EE90E00895209163052370D6
:10278000A1F080EE90E008952091630520FD47C000
:102790003091640530FF09C024FF44C090E080E020
:1027A00004C02091630522FDF7CF089520916305B1
:1027B00022FD3BC03091640530FDE3CF24FFF5CF0F
:1027C000EDCF2091630523FFF0CF24FDE7CFD2CFDB
:1027D0002091630523FD2CC03091640531FFEECFBD
:1027E00084EE90E008952091630525FFDECF89E215
:1027F00090E008952091630525FFD7CF85E390E011
:1028000008952091630526FFD0CF8AE290E00895D5
:102810002091630526FFC9CF81E390E0089589E305
:1028200090E0089583EE90E0089582EE90E00895A0
:1028300086EE90E008959091630592FF06C0282FE0
:1028400028712830F9F4877F846093FF06C0282F11
:1028500028712831F1F4877E84612091640520FF7E
:1028600006C0382F38713830D9F4877F816021FF56
:1028700006C0282F28712831D1F4877E816194FD0C
:10288000877E0895282F24712430F9F68B7F886085
:10289000DCCF282F2471243101F78B7E8861DDCFB6
:1028A000382F3171313019F78E7F8860E0CF282FB3
:1028B0002171213121F78E7E8861E1CF80E008957A
:1028C0000C94DB100E94D5158FE39CE90197F1F77A
:1028D00000C000000E94D5150E947716811109C022
:1028E00084E00E94A81481FF06C00E9460140C942A
:1028F000EE2A80E0F6CF08950C9462140E94E11055
:10290000811102C00E9486110E94EC108093650420
:102910000E94F41090936405809363050E947C14D8
:102920000E94F010682F70E090E080E00E94260B7B
:102930006091DD037091DE038091DF039091E003ED
:102940000C94600B08950C94A21408950C94A51493
:10295000E82FF0E0E359FA4F80810895089580EA66
:102960008A95F1F7089500C008950C94AF14F89477
:10297000E82FE295EF70F0E031A1282F2F7081E071
:1029800090E001C0880F2A95EAF7982F909593233D
:1029900091A392A1892B82A37894089508950C9411
:1029A000CE14CF93DF9384E90E94B71486E60E9489
:1029B000B71487E90E94B71486EC0E94B714CCE8DC
:1029C000D3E089918F3F11F00E94B71483E0C239A0
:1029D000D807B9F7DF91CF910895CF92DF92EF92A8
:1029E000FF920F931F93CF93DF93EC01D62E062F08
:1029F00010E0C8018E569C4F7C01FC0180818F3F06
:102A000009F44BC0F894E82FE295EF70F0E091A143
:102A10008F7021E030E001C0220F8A95EAF7892FFC
:102A2000822B81A382A12095282322A378940E943F
:102A3000B314ECE8F3E030E020E0C12C51E0419128
:102A40004F3FA1F1A42FA295AF70B0E090968C916A
:102A500090E04F7002C0959587954A95E2F780FD0A
:102A600025C0852F022E01C0880F0A94EAF7C82AD4
:102A70002F5F3F4F2630310511F7F70180818F3FDF
:102A800011F00E94B71461E0C11001C060E08D2D0B
:102A90000E94B514C00FD11FC882DF91CF911F9142
:102AA0000F91FF90EF90DF90CF90089580E0DFCFFF
:102AB0000E9479168091A0028091A00294E0811179
:102AC00090E09093760584E0891B809375050E94C1
:102AD000D114E5E6F5E0ADE6B5E011921D9285E092
:102AE000ED36F807D1F784E00E9428160E94D70639
:102AF0000C9483161F93CF93DF9300D000D0CDB7F3
:102B0000DEB70E945F16182F60917605882309F4BE
:102B10003FC019821A821B821C82862F90E0BE0160
:102B20006F5F7F4F83599A4F0E949116E091750510
:102B30009E012B5F3F4FF0E0882301F1BF016359F5
:102B40007A4FDE01119610E0FB014191BF019D918A
:102B5000491731F0AF0141505109FA019083182F04
:102B6000A217B30789F70E94DD06812F0F900F90FF
:102B70000F900F90DF91CF911F910895E359FA4F75
:102B8000DE01119611921D92A217B307D9F7EBCF70
:102B900070E063597A4F8091750590E083599A4FA0
:102BA0000E941E170E94CF14E0CFEF92FF920F9366
:102BB0001F93CF93DF93CDB7DEB728970FB6F89466
:102BC000DEBF0FBECDBF8E010F5F1F4F88E0F80143
:102BD00011928A95E9F7F12C6F2DC8010E94ED142E
:102BE000F394F4E0FF12F8CF48E050E0B80185E636
:102BF00095E00E940C327C0121E0892B09F420E051
:102C0000E114F10441F088E0F801A5E6B5E0019097
:102C10000D928A95E1F76091760570E063597A4FDD
:102C200044E085E695E00E94291681E090E0EF28D7
:102C300011F40E947A1528960FB6F894DEBF0FBEE5
:102C4000CDBFDF91CF911F910F91FF90EF9008952D
:102C50000895FF920F931F93CF93DF93F82E092FC0
:102C6000162FD72FC42F222349F081E080936804C8
:102C70000E94872A90936704809366048091680479
:102C80008823A1F080916604909167040E949F2A96
:102C9000059760F0EF2DF02FA12FBD2FCE0FDF2F66
:102CA000D11DEC17FD0741F410926804DF91CF911C
:102CB0001F910F91FF90089581918D93F2CF809194
:102CC0006B04811107C00E94BC31882351F081E060
:102CD00080936B0481E090916B04913009F080E067
:102CE000089582E080936B040E94B731F3CF0C9477
:102CF0005F160E9477168093A0020E945F168111D2
:102D00000C94C71608950E945F16811102C00C949E
:102D1000C916089581E090916C049A3008F080E023
:102D200008950F931F93CF93DF93EC018B01809154
:102D30006C048A30B8F4B801CE010E941C17C82F69
:102D4000811122C080916C048F3FB9F40E94872AC0
:102D500090936A04809369048C2FDF91CF911F9127
:102D60000F9108958091690490916A040E949F2AAE
:102D7000843F914000F7C0E0EFCF8F5F80936C04F9
:102D80008A3020F7C1E0E8CF10926C04E5CF0C94B4
:102D9000DA260C94DD26EF92FF920F931F93CF93C8
:102DA000DF937901C82F880FDD0B41155105A9F07C
:102DB0008AE08C9FF0018D9FF00D1124EF55FD4F9F
:102DC0008381948183599B4F228130E042175307BE
:102DD00008F49A01A9010E941932CE010E94E72746
:102DE000892B11F501151105E9F08AE08C9FF0019E
:102DF0008D9FF00D1124EF55FD4F458150E00417D4
:102E0000150708F4A8018AE08C9FF0018D9FF00D52
:102E10001124EF55FD4F6681778163597B4FC701C0
:102E20000E94193281E001C080E0DF91CF911F91B3
:102E30000F91FF90EF9008950C943C180C94581843
:102E40000F931F93CF93DF9300D000D0CDB7DEB7A1
:102E50006091820470918304809184049091850430
:102E60000E94AE2A11E0643671058105910518F1C2
:102E70000E94E9296E5F7F4F8F4F9F4F69837A834E
:102E80008B839C8310E000E030E020E044E050E0E1
:102E9000BE016F5F7F4F82E00E94CB16182F882300
:102EA00051F00E94932A609382047093830480936C
:102EB000840490938504812F0F900F900F900F90B2
:102EC000DF91CF911F910F910895AF92BF92CF9252
:102ED000DF92EF92FF920F931F93CF93DF9300D077
:102EE00000D00F92CDB7DEB75B01E0909A03F0906F
:102EF0009B0301E010E09E012B5F3F4F50E040E05C
:102F000070E060E080E00E94CB16182F882309F45F
:102F10004BC067018FEFC81AD80A60917E04709188
:102F20007F0480918004909181040E94AE2A6436CF
:102F300071058105910580F104E010E09E012F5F8D
:102F40003F4F50E040E070E060E081E00E94CB162F
:102F5000F82E64E070E0C6010E94291B11E09D81FB
:102F6000981310E01F2159F10E94932A60937E0468
:102F700070937F04809380049093810489819A8167
:102F8000AB81BC8180937A0490937B04A0937C04F2
:102F9000B0937D0411E013C064E070E0C6010E94AC
:102FA000291B9D818913C8CFF70181819281A3815B
:102FB000B48189839A83AB83BC831111DFCF809165
:102FC0007A0490917B04A0917C04B0917D04F5017A
:102FD00080839183A283B383812F0F900F900F90F2
:102FE0000F900F90DF91CF911F910F91FF90EF9075
:102FF000DF90CF90BF90AF900895AF92BF92CF92E5
:10300000DF92EF92FF920F931F93CF93DF937C0198
:103010005B016A010E948A1601E010E0882311F02A
:103020000AE010E0C1E0D0E0F894B501C701F60174
:1030300009957894811104C021960C171D075CF442
:10304000DF91CF911F910F91FF90EF90DF90CF9084
:10305000BF90AF900895CC9F9001CD9F300D300D63
:10306000112490E080E045E34A95F1F700000196D5
:1030700082179307C1F7D8CF0F931F93CF93DF9396
:10308000EC018B0145E657E10E94FD17882351F0C2
:1030900040E257E1B801CE01DF91CF911F910F912E
:1030A0000C94FD1780E0DF91CF911F910F9108954F
:1030B0000F931F93CF93DF93F894C0919A03D0910D
:1030C0009B03CE01019624E0FB01DC0101900D92EF
:1030D0002A95E1F764E070E00E94291B88837894C8
:1030E000F8946D817E818F8198850091760410918E
:1030F0007704209178043091790460177107820772
:10310000930751F06093760470937704809378046A
:10311000909379040E94CC297894DF91CF911F91EC
:103120000F9108950E94042A0E94702C0E94892CFD
:103130000E949B2C0E94BC11FBCF80918C0480FFCD
:1031400012C06091C40285E0689FB001112475959A
:1031500067957595679560387105A8F561157105D6
:10316000A1F1862F089581FF09C06091C40285E016
:10317000689FB001112475956795EDCF6091C402E9
:1031800082FD0AC080918B048823D1F09091C30204
:103190006091C402891728F085E0689FB00111246E
:1031A000DACF869FB001112485E0869F9001879F2A
:1031B000300D1124692F70E0C9010E94E931CBCF95
:1031C00065E070E0CECF8FE7089581E008958091AB
:1031D0008C0480FF0CC06091C00270E0759567950B
:1031E000759567956115710549F1862F089581FFE1
:1031F00006C06091C00270E075956795F3CF60914D
:10320000C00282FD0BC090918A049923A1F06091C5
:10321000BF028091C002961738F0682F70E06038C6
:10322000710500F38FE70895899FC001112470E0B4
:103230000E94E931F4CF61E070E0D7CF81E00895DA
:103240008D3E31F40E949D188195809390040895DD
:103250008E3E19F40E949D18F8CF8F3E31F40E94E3
:103260009D18819580938F040895803F19F40E94E2
:103270009D18F8CF893F29F40E94E71880939104A4
:1032800008958A3F21F40E94E7188195F7CF8B3F7C
:1032900031F40E94E71881958093920408958C3F41
:1032A00019F40E94E718F8CF9FE0980F983070F457
:1032B000815F990B21E030E001C0220F8A95EAF787
:1032C00080918E04822B80938E0408958D3F31F47B
:1032D00080918C04816080938C0408958E3F21F44A
:1032E00080918C048260F7CF8F3FB9F780918C0476
:1032F0008460F1CF40918F048D3E59F48091900409
:1033000087FF0DC01092900441110BC010928B04E6
:1033100008C08E3E81F48091900418169CF34423DB
:1033200081F08091910490919204892B09F05AC008
:1033300010928A0408958F3E49F447FFF0CF10920F
:103340008F04809190048111ECCFE0CF803F19F47D
:103350001416ACF3E4CF90919104893F29F4191627
:10336000F4F610929104DBCF8A3F19F497FFD7CF80
:10337000F8CF909192048B3F29F497FFD0CF109211
:103380009204CDCF8C3F19F41916CCF3C8CF9FE02F
:10339000980F983090F4815F990B21E030E0B901EB
:1033A00002C0660F771F8A95E2F7CB018095909156
:1033B0008E04892380938E04B2CF8D3F31F48091A7
:1033C0008C048E7F80938C04AACF8E3F21F4809151
:1033D0008C048D7FF7CF8F3F09F0A1CF80918C04B3
:1033E0008B7FF0CF08950E94872A9C0190918F04D3
:1033F00080919004982B21F03093890420938804C5
:103400009091910480919204982B21F0309387043D
:10341000209386048DE894E00C94CD28EF92FF92DF
:103420000F931F93CF93DF9300D000D000D0CDB780
:10343000DEB786E0EDE8F4E0DE01119601900D9232
:103440008A95E1F7E0908F04F09090040091910448
:103450001091920410928F04109290041092910493
:10346000109292048E2D8F2991F080918804909172
:1034700089040E949F2AAC0190918B04992309F43E
:103480003FC08091C5028417150608F447C0802FFD
:10349000812B91F080918604909187040E949F2A4D
:1034A000AC0190918A04992309F477C08091C102FC
:1034B0008417150608F47FC080918F0490919004C2
:1034C000892B90919104892B90919204892B11F072
:1034D0000E94F31986E0FE013196ADE8B4E0019058
:1034E0000D928A95E1F726960FB6F894DEBF0FBECF
:1034F000CDBFDF91CF911F910F91FF90EF90089575
:103500002091C6028AE0289F9001112424173507D4
:1035100008F0BDCF9F5F90938B0402C09F3FD1F70F
:10352000EE2059F00E949D189FEF1E140CF491E0BC
:10353000899F802D112480938F04FF2059F00E94D1
:103540009D189FEF1F140CF491E0899F802D11248A
:103550008093900430918F04332309F498CF209105
:103560009004222309F493CF45EB3403C0011124C6
:10357000992359F090938F0445EB24039001112473
:10358000332339F03093900482CF81E080938F040D
:10359000F3CF81E0809390047ACF2091C2028AE039
:1035A000289F900111242417350708F085CF9F5FCD
:1035B00090938A0402C09F3FD1F7002359F00E94E4
:1035C000E7189FEF10160CF491E0899F802D1124CD
:1035D00080939104112359F00E94E7189FEF111670
:1035E0000CF491E0899F802D1124809392043091F6
:1035F0009104332309F460CF20919204222309F42B
:103600005BCF45EB3403C0011124992359F090930B
:10361000910445EB240390011124332339F03093B6
:1036200092044ACF81E080939104F3CF81E08093AC
:10363000920442CF86E0EDE8F4E0DF011D928A9526
:10364000E9F710928B0410928A0410928C0408956A
:103650000895FC01680F791F8FEF91E36E177F07C4
:1036600009F408952191822728E030E087FF06C001
:10367000880F892721503109C9F7F0CF880FFACF79
:10368000CF92DF92EF92FF920F931F93CF93DF932E
:103690006C017B0164E670E088E70E947825EC010C
:1036A00097FD12C010E000E0F601E00FF11F8491D9
:1036B00064E670E00E94F225EC01892B29F40F5F8B
:1036C0001F4F0E151F0581F70E947526CE01DF9151
:1036D000CF911F910F91FF90EF90DF90CF900895C1
:1036E000E8E7F5E080E092E0DF019C011D922150C7
:1036F0003040E1F7F0937F07E0937E078FEF9FEF75
:103700009093BF048093BE0408950E948D0580931A
:10371000BA0480FD0FC080E88093B9040E9472252E
:103720006DE070E08AEC92E00E94401B892B21F052
:1037300080E0089580E2F0CF8091BA0463E070E009
:1037400081FD26C087EC92E00E94401B892B81F707
:103750006DE070E087EB92E00E94401B892B41F7FF
:103760000E94932A605A75418F4F9F4F60937A074A
:1037700070937B0780937C0790937D070E94701B5A
:1037800081E08093BD048093BC041092BB04089533
:1037900084EC92E0D9CF2091B90436E0839FC00138
:1037A0001124629F800D911D1124811522E0920742
:1037B00014F090E080E088589A4F90937F078093B0
:1037C0007E07089520917E0730917F07225735406C
:1037D0004091B904642F70E0C9010E94D531481BA3
:1037E000463010F4240F311D211582E0380710F007
:1037F00030E020E028583A4F30937F0720937E072F
:1038000008951F93CF93DF93162F8A3031F481E010
:10381000DF91CF911F910C947B1C8D3011F480E0CF
:10382000F7CFC0917E07D0917F0796E0FE01A3E914
:10383000B4E001900D929A95E1F7803EC8F086E0E1
:10384000FE0111928A95E9F711111EC0C0917E0701
:10385000D0917F0746E050E0BE0183E994E00E94EA
:103860000C32892BF9F4DF91CF911F910C94E21B5C
:10387000F6E08F9FB001112469527D4F46E050E081
:10388000CE010E940332E0CFE0917E07F0917F07E6
:103890009F012A5F3F4F2E173F07C1F2808180951D
:1038A0008193F9CFC857D540CE0125E096958795ED
:1038B0002A95E1F721E030E0A90102C0440F551F2D
:1038C0008A95E2F7CA014091BE045091BF04842B4F
:1038D000952B259645E0D695C7954A95E1F702C008
:1038E000220F331FCA95E2F7822B932B9093BF04CC
:1038F0008093BE04B8CFCF93382FE0917E07F0912C
:103900007F07E857F5402091B904622F70E0CF019E
:103910000E94D531281B822F332369F066E00E9474
:10392000C931C82FC15010F4CF91089560E080E2F2
:103930000E94011CF7CF9F01280F311D2115324035
:1039400018F080E0F0E0E0E08E0F9F2F911D885886
:103950009A4F90937F0780937E07E6CFFF920F9355
:103960001F93CF93DF93EC01F62EFC010190002012
:10397000E9F78F0101501109C017D10730F0DF912D
:10398000CF911F910F91FF9008956F2D89910E9403
:10399000011CF2CF1F93CF93DF93EC01162FFE0192
:1039A0008491811104C0DF91CF911F910895612FFF
:1039B0000E94011C2196F3CF0E94CA1C81E00C9446
:1039C0007B1C8091BD04811103C08091BC040895CB
:1039D0000E94932A605A75418F4F9F4F60937A07D8
:1039E00070937B0780937C0790937D078091BC0444
:1039F0008111EBCF62E070E085EB92E00E94401B0A
:103A0000892B19F781E08093BC04DFCF2F923F927E
:103A10005F926F927F928F929F92AF92BF92CF925E
:103A2000DF92EF92FF920F931F93CF93DF938091DA
:103A3000BD04882369F02091BE043091BF04211594
:103A4000310531F08091BB0461E070E0882399F08A
:103A5000DF91CF911F910F91FF90EF90DF90CF906A
:103A6000BF90AF909F908F907F906F905F903F90AE
:103A70002F9008958F5F082F10E01B01082E02C0C1
:103A8000220C331C0A94E2F7A90142215321452B51
:103A900089F39091BA0490FD44C08295880F807696
:103AA0008093C902980136952795369527952093DE
:103AB000CC02815E8093CA021092CD0224E630E0EF
:103AC00047E050E067EC72E088E70E942126892BEE
:103AD00009F0BECFA80125E0440F551F2A95E1F754
:103AE0008091BA0480FD2BC048585A4F04E610E07C
:103AF00020E230E060E488E70E944826892B09F044
:103B0000A7CF0E94E11CE101C095D0958091BE0431
:103B10009091BF04C823D923D093BF04C093BE049F
:103B200097CF880F880F880F8093C9021092CC021C
:103B3000895F8093CA0283E08093CD02BFCFE9E919
:103B4000F4E080E2DF011D928A95E9F7A0EAB3E094
:103B50000CE913E084EAC82E83E0D82E97E0592EB2
:103B6000772473948D91E80129918E01240F352FCC
:103B7000311D28583A4FE82FF0E0E756FB4F90E010
:103B800080E0652C681A872C082E01C0880C0A94E6
:103B9000EAF77901A12CE701B9907E01B820662DE2
:103BA0006A196770962E062E000C770BDB2D01C06C
:103BB000DD0F9A94EAF7719561957109677077271F
:103BC00001C0B6946A95EAF7BD2A6081962E9B28BB
:103BD0009082A39468E0A612DECF019631968830D9
:103BE000910579F6CA16DB0609F0BCCF04E610E0B1
:103BF00020E230E049E954E07DCF8091BC0490910F
:103C0000BD04911103C091E089270895882369F0CC
:103C100062E070E083EB92E00E94401B892B19F078
:103C20008091BC0408951092BC048091BC04EBCF39
:103C30000F931F938091BD04882389F180917807A9
:103C4000909179070E949F2AC29760F00E94872A6C
:103C5000909379078093780760E080E00E94CB1B07
:103C60000E94FE050E94061D8091BC048823B9F0C5
:103C70000E94932A00917A0710917B0720917C077C
:103C800030917D07601B710B820B930B6F3F7F4F51
:103C90008F4F9F4720F41F910F910C94FD1D1F9192
:103CA0000F9108950F931F93CF93DF93C42FD22FBB
:103CB000FC0182818823C9F04093C2040E94872AB4
:103CC0009093C1048093C00480E28C0F883008F088
:103CD00050C0C77081E001C0880FCA95EAF7DF9134
:103CE000CF911F910F910C9442081091C2041413AC
:103CF00035C08091C0049091C1040E949F2A843BEA
:103D0000910560F5C0E2CD0F1D17B9F080E2810F7B
:103D1000883040F4177081E001C0880F1A95EAF7E7
:103D20000E944908C83048F481E09D2F977001C077
:103D3000880F9A95EAF70E944208802F0E943A085D
:103D4000C830B8F4D77081E001C0880FDA95EAF77F
:103D5000DF91CF911F910F910C94490880E28C0F55
:103D6000883038F4C77081E001C0880FCA95EAF73F
:103D7000EFCFDF91CF911F910F9108950F939C0189
:103D8000CB01243F4CE5340759F1A8F4293DFCE56B
:103D90003F0701F12A3D4CE53407D1F1283D3C4570
:103DA00091F406E221EE41EE68ED7CE50E94521EA0
:103DB00080E00F910895263FFCE53F07E9F0B0F061
:103DC000273F3C45F9F0FC018281882339F11092AC
:103DD000C204EFCF07E225EE45EE69ED7CE5E6CFC4
:103DE00006E221EE40EE64EF7CE5E0CF07E225EE4F
:103DF00044EE65EF7CE5DACF06E221EE42EE66EFB7
:103E00007CE5D4CF07E225EE46EE67EF7CE5CECF2A
:103E100008E221E045EE6AED7CE5C8CF81E0C9CF3C
:103E2000CF93DF93EC01FB018281882309F419C150
:103E3000C230FCE5DF07C0F1C6319CE5D90730F0A0
:103E40009E012B5F3C452930310570F50E94F4102E
:103E50009093640580936305C031ECE5DE0709F4B7
:103E6000CFC008F05BC0C8308CE5D80709F4B6C0F5
:103E700088F5C430ECE5DE0709F4A8C0C0F4C23010
:103E80008CE5D80709F49CC0809163058260C3303B
:103E9000DC4509F498C080916305909164050E9407
:103EA00002110E94C30A80E0DF91CF9108958091B2
:103EB00063058061C630ECE5DE0709F484C08091BB
:103EC00063058860C730DC4508F47DC080916305D8
:103ED000806279C0CC308CE5D80709F489C070F4D1
:103EE000809163058C60CA30ECE5DE0709F46BC095
:103EF00008F478C0809163058E7F65C0CE308CE574
:103F0000D80709F479C0809163058B7FCF30DC45F9
:103F100008F459C0809163058F7E55C0CC3FECE515
:103F2000DE0709F457C030F5C3318CE5D80709F432
:103F30006FC078F4C131ECE5DE0709F465C0C23129
:103F4000DC4509F0A8CF0E94C30A809163058F77F2
:103F50003AC0C5318CE5D80709F462C008F476C0D0
:103F6000809164058160CB3FDC4509F094CF80935C
:103F7000640591CFC115FDE5DF0709F44DC088F454
:103F8000809164058D7FCE3F9CE5D90781F38091B8
:103F900064058E7FCF3FDC4550F3809164058360DC
:103FA000E6CFC230FDE5DF0709F459C008F444C08C
:103FB00080E0C330DD4509F06ECF0E9488116BCFE1
:103FC0008091630581608093630565CF809163056F
:103FD0008460F9CF809164058260C9CF80916305C8
:103FE0008064F1CF0E94C30A809163058068EBCFA3
:103FF000809163058D7FE7CF80916305877FE3CF55
:10400000809163058F7DDFCF809163058F7BDBCF50
:1040100080916305837FD7CF809164058C7FA7CF84
:104020008091630582FB992790F921E0922790FB0C
:1040300082F990FB83F9C7CF80916405982F909502
:1040400091708E7F892B90FB81F991CF0E94C30ADA
:1040500090916305892F97FB87F98058B4CF81E051
:10406000ACCF81E021CFCF93DF93EB0186319C452C
:1040700011F50E9428109A81992399F08A7A91E08B
:1040800009F490E09093C304811109C089E20E9471
:10409000E20F0E946E1080E0DF91CF91089585E3DA
:1040A000F6CF8091C304811104C089E20E94E90F18
:1040B000F0CF85E3FBCF81E0EFCF08950F931F93FF
:1040C000CF93DF9380912F05E091C4041CE0811110
:1040D0001AC0DF91CF911F910F91089501E00E0F4B
:1040E0000093C404CE2FD0E0E19FF0011124E153EE
:1040F000FB4F83819481892B29F0808191818923D1
:104100008F3FE9F4E02F80912F05E81738F31092E4
:104110002F051092C404DDCF18968D919C918F3F8E
:104120009807D1F061E00E945D201C9FF0011D9F67
:10413000F00D1124E153FB4F14821382E3CF1C9F37
:10414000D0011D9FB00D1124A153BB4F16968D9128
:104150009C911797892B01F32081318142815381F2
:1041600064817581868197810E94420FDECF109213
:104170003105109230052091CF023091D002E0E05D
:10418000F1E090E080E02817390709F408954581AF
:10419000411102C01482168201963796F4CFDC01D9
:1041A0006091CD048091CE04962F891301C00895AB
:1041B000292F30E0F901EE0FFF1FEB53FB4F408139
:1041C00051814A175B07A1F487E08A9FA0018B9F6A
:1041D000500D112440505F4F81E0FA018483961303
:1041E000E6CF2F5F3F4F237033272093CD040895F0
:1041F0002F5F3F4F922F9370D8CF7F928F929F92D5
:10420000AF92BF92CF92DF92EF92FF920F931F93E4
:10421000CF93DF93EB012C81211165C070902F05A6
:10422000AFECB4E030E020E0812C61E070E02715D5
:1042300008F042C01A96CD90DC901B97A880B980F8
:104240004FEF5FEF912CE92CF12CF701EE0FFF1FE0
:10425000EA0DFB1D05911491C016D10609F4A701C2
:10426000012B11F09394EFCF4F3F5407C1F1FB01A5
:1042700002C0EE0FFF1F4A95E2F78E2AAB0102C083
:10428000440F551F9A94E2F74150510984161506C0
:1042900011F54A815B816CE0629FF001639FF00D34
:1042A0001124E153FB4F578346832EEF2083218354
:1042B0009187808721E02D83DF91CF911F910F910E
:1042C000FF90EF90DF90CF90BF90AF909F908F9036
:1042D0007F900C94CF2014961C921E9213972F5F00
:1042E0003F4F1C96A4CFDF91CF911F910F91FF906C
:1042F000EF90DF90CF90BF90AF909F908F907F9086
:1043000008951F93CF93DF93C091CD0417E0809160
:10431000CE048C1307C00E945E20DF91CF911F91C5
:104320000C94B720D0E0FE01EE0FFF1FEB53FB4FC4
:1043300080819181189FB001199F700D11246050E8
:104340007F4F0E94FD202196C370E1CFEF92FF9234
:104350001F93CF93DF93FC012081318110E040E077
:1043600050E0E52FF0E0EE0FFF1FE20FF31FA591E5
:10437000B4911097B9F0FB01C081D18140E005C034
:10438000AE15BF0509F411E04F5FE42FF0E0EE0F2A
:10439000FF1FEC0FFD1FE590F490E114F10481F78D
:1043A0005F5FDFCF112349F0451708F4CB01DF91A0
:1043B000CF911F91FF90EF90089590E080E0F7CFAC
:1043C0008091CE02882341F180913205909133058E
:1043D000009711F10E949F2A2091300530913105FC
:1043E00028173907C8F49091CD048091CE0498170E
:1043F00059F00E94812110923105109230051092DF
:1044000033051092320508950E945E201092330504
:10441000109232050C94B720089510923305109233
:1044200032051092CE028091CE048093CD040E947A
:10443000B7200C945E208091CE0281110C940D2245
:1044400081E08093CE0208952F923F924F925F9227
:104450006F927F928F929F92AF92BF92CF92DF9294
:10446000EF92FF920F931F93CF93DF93CDB7DEB7F9
:1044700029970FB6F894DEBF0FBECDBF6C013B018C
:10448000FB011281883FFCE59F07F9F4112321F11C
:1044900081E08093CE02812F29960FB6F894DEBF7B
:1044A0000FBECDBFDF91CF911F910F91FF90EF9085
:1044B000DF90CF90BF90AF909F908F907F906F9044
:1044C0005F904F903F902F900895893F2CE5920781
:1044D00009F04DC0111148C000E011E0F12CE12CB1
:1044E000198688248394912C8091CF029091D002D8
:1044F000E816F90608F445C0F3018281882309F41F
:104500005EC1F985FF2309F45AC10E94872A90935E
:1045100033058093320580912F05883008F591E0AE
:10452000980F90932F0598E0F301DE01119601900A
:104530000D929A95E1F72CE0829FC00111248153DE
:104540009B4F28E0FE013196DC0101900D922A95E7
:10455000E1F72FEF3FEFFC0131872087D386C2863A
:1045600011E0F9851F2797CF0E940D2294CF8A3F33
:104570009C4509F0B1CF112309F4AECF0E941B2254
:104580008ACFF80160817181AA24AA94BA2C20E014
:10459000422F50E0FA01EE0FFF1FE60FF71F859143
:1045A0009491C816D90609F45A01892B11F02F5F8E
:1045B000EFCF312CFFEFAF16BF0609F444C0F8016E
:1045C00044813090CE02832D411180E0F82FF170AC
:1045D0003F2EF80155808681F3019281992309F4D9
:1045E0008DC0332009F48AC0511014C0A40101C049
:1045F000440FAA94EAF7842BF80186838091300552
:10460000909131050F9730F46FE070E070933105B1
:1046100060933005C40102C0880F991F2A95E2F704
:104620000197F80126812817190669F4809132054F
:1046300090913305009781F00E949F2A409760F087
:1046400021E0F8012483F985F329F9872FEFE21A95
:10465000F20A095F1F4F48CF2090CD0490E080E020
:104660002091CE04221215C08017910761F3A22C6D
:10467000B12CF501EE0FFF1FEB53FB4FF182E082EF
:104680006FEFA61AB60A73E0A722BB24A092CE044D
:10469000DACFA22CB12CF501EE0FFF1FEB53FB4F2D
:1046A0002081318147E0429FC001439F900D11243A
:1046B000BC0160507F4F2B01B801C2010E94A621AE
:1046C0000097A9F021E0FC0124838017910709F4E9
:1046D000BACF2091CD0422120AC04816590639F4E7
:1046E00095012F5F3F4F237033272093CD043FEF79
:1046F000A31AB30A4A2D4370242EB2CF90E0511072
:104700001FC0F40102C0EE0FFF1F2A95E2F79F01C0
:10471000215031092817390731F4442309F44DC0D9
:10472000C7010E94CF20C40101C0880FAA94EAF7F4
:10473000982F9095F801868189238683352C83CF25
:104740009C010A2C02C0359527950A94E2F7A9012D
:1047500041705527BC016150710986239723892B2D
:1047600041F5452B31F1F80182819381892BE1F0EC
:104770001B821C821D821E82FEEFF983FA830E9437
:10478000872A8160582F9D838C83F80182819381D1
:104790008F83988729813A814B816D817E810E9428
:1047A000420FF8011582BFCF60E0C7010E945D2073
:1047B000F8CFF22FF1705F2EB6CF532CB4CF90917B
:1047C000CD048091CE04981719F00E948121C8CEA3
:1047D0000E945E2010923305109232050E94B7208D
:1047E000BFCECF93DF93EC0181E0898B8F810E9454
:1047F0002B1088850E943E100E946E10EA81FB817A
:10480000309739F06C897D89CE010696DF91CF9182
:104810000994DF91CF910895CF93DF93EC018881C4
:10482000823039F4FB01828193810E94400681E04D
:104830008B87DF91CF910895FC018081813029F42D
:10484000FB01808191810C944006823021F4FB01B0
:1048500082819381F8CF0895FC018081813029F411
:10486000FB01808191810C945706823021F4FB0179
:1048700082819381F8CF0895EF92FF920F931F9357
:10488000CF93DF93EC018A85811134C0EB80FC80EB
:1048900087E5F81A26E12E9DC0012F9D900D112469
:1048A000DC01A656BE4F1496ED91FC9115973097FA
:1048B00031F054966D917C9180569E4F099586E11A
:1048C0008E9D80018F9D100D112406561E4FF801FC
:1048D00087810E943110F80180850E9444100E9457
:1048E0006E10188219861B861E821D821092350555
:1048F00010923405DF91CF911F910F91FF90EF90AF
:104900000895DF92EF92FF920F931F93CF93DF935F
:104910007C01FB018281882391F08091D1028F3F3D
:1049200071F0CAE9D1E010E000E0DD24D394809179
:10493000D102082E000C990B8017910744F4DF91E7
:10494000CF911F910F91FF90EF90DF9008958E818E
:104950008823D9F089859A858E159F0539F4809131
:104960003405909135058E159F0579F0DF86FC861C
:10497000EB868989811103C0CE010E94F123CE010B
:1049800006960E943C240E944B100F5F1F4F6696B4
:10499000CECFEF92FF920F931F93CF93DF937C01C3
:1049A00097558F3F910509F0D8F52091D102022E3D
:1049B000000C330B2817390714F48093D102FB0144
:1049C000228136E1389F8001399F100D1124E801C2
:1049D000C656DE4F288B92818E81992349F1FA8643
:1049E000E9868F5F8E830E94872A9E878D870E942B
:1049F00051108F830E94281088870E943B10988551
:104A0000892B8887E881F981309731F06C897D891D
:104A1000C80180569E4F0995F0923505E092340505
:104A200081E0DF91CF911F910F91FF90EF9008955A
:104A30008823B1F38989882399F3C80180569E4F52
:104A40000E943C24EDCFEF92FF920F931F93CF93E0
:104A5000DF938091D10210E006E18F3FC1F5DF9135
:104A6000CF911F910F91FF90EF900895029FF00159
:104A7000039FF00D1124E656FE4FE288F388E114FF
:104A8000F10419F484EBE82EF12C029FE001039F5E
:104A9000D00D1124C656DE4F8E818823B9F08D8546
:104AA0009E850E949F2AE816F90680F4109F7001E7
:104AB00011248989811105C0C70186569E4F0E9425
:104AC000F123C70180569E4F0E943C241F5F212F77
:104AD00030E08091D102082E000C990B82179307C9
:104AE0002CF6BDCF1092B9008CE08093B8000895E9
:104AF0009F92AF92BF92CF92DF92EF92FF920F936D
:104B00001F93CF93DF93B82EEB010E94872A6C018D
:104B1000EE24E394F12CC431D10560F025E0E22EBF
:104B2000F12CCF3FDC0731F0CE0164E170E00E9450
:104B3000D5317B0184EAA82E94E8992E1092BC000E
:104B4000A092BC000E94872A8C018091BC0087FF44
:104B50000DC08091B900887F883039F18091B9000B
:104B6000887F803111F10FEF1FEF09C00E94872A63
:104B7000801B910B8E159F0540F30EEF1FEFCF3F6B
:104B8000DC07E1F2C6010E949F2A8C179D07B0F254
:104B9000C801DF91CF911F910F91FF90EF90DF90AF
:104BA000CF90BF90AF909F900895B092BB0090922D
:104BB000BC000E94872A8C018091BC0087FF0AC03C
:104BC0008091B900887F883111F0803461F610E05F
:104BD00000E0DECF0E94872A801B910B8E159F0577
:104BE00058F3CBCF0F931F93CF93DF93EB018093B9
:104BF000BB0084E88093BC000E94872A8C018091CE
:104C0000BC0087FF11C02091B900287F81E090E0AF
:104C1000283211F490E080E0919581959109DF911F
:104C2000CF911F910F910895CF3FDC0741F30E9470
:104C3000872A801B910B8C179D0708F38EEF9FEF3F
:104C4000EECFCF92DF92EF92FF920F931F93CF930D
:104C5000DF936B018A017901B9010E947825E60191
:104C60000C0D1D1DC017D10761F424E92093BC0071
:104C7000DF91CF911F910F91FF90EF90DF90CF9038
:104C8000089597FDF2CFB70189910E94F225EACFEE
:104C9000CF92DF92EF92FF920F931F93CF93DF9308
:104CA000C62F6A017901B8010E94782597FD0CC0D2
:104CB000B8018C2F0E94F225E601EC0CFD1CCE15EC
:104CC000DF0511F097FF0CC024E92093BC00DF91B1
:104CD000CF911F910F91FF90EF90DF90CF900895AB
:104CE000B80189910E94F225EACF84E98093BC0043
:104CF00008958EE14A9B02C08150E1F74A9BFECFA6
:104D000008955A9880E28A95F1F75A9A0895FC011D
:104D10003BE03A95F1F798E020E080E031E040E1B7
:104D20004A95F1F7880F4A9B02C08160232742E031
:104D30004A95F1F7000040E14A95F1F7915079F773
:104D400090E19A95F1F799B132E03A95F1F70000C8
:104D500040E14A95F1F792FB992790F9922720813B
:104D6000920F90830895EF92FF920F931F93CF932A
:104D7000DF930F92CDB7DEB719828C017C01E60E6E
:104D8000F11C0E151F0561F481E09981911180E0FD
:104D90000F90DF91CF911F910F91FF90EF900895A9
:104DA0000E947926CE0101960E948726F801819300
:104DB0008F01E7CF529A5A9A089552985A9AEA9ACE
:104DC000E9E6F0E080818F7C808308956150770B65
:104DD00091E001C0990F6A95EAF720E031E0911166
:104DE00008C0222391F05A9A80E28A95F1F75A98E6
:104DF0000895492F482339F05A9A232740E24A95CB
:104E0000F1F79695ECCF5A98F9CF5A98EDCFFF92DB
:104E10000F931F93CF93DF93EC018C01060F111DAD
:104E2000C017D10731F4DF91CF911F910F91FF90FF
:104E30000895F9900E94812668E08F2D0E94E62651
:104E4000EFCF1F920F920FB60F921124EF92FF92A5
:104E50000F931F932F933F934F935F936F937F9382
:104E60008F939F93AF93BF93EF93FF93CF93DF9372
:104E70000F92CDB7DEB719820E947926CE01019636
:104E80000E948726A82FA695A695A695282F22953D
:104E900025709A2F9570290F922F9370269526953D
:104EA000920F982797708981982B09F075C0A430CC
:104EB00008F072C080E18A95F1F75A9A529AB2E0EE
:104EC000BA95F1F700C05A98EA2EF12CEAE0AE9FAD
:104ED000D0011124AF55BD4F1896ED91FC91199753
:104EE0003097B1F060919A0370919B0316962D91C3
:104EF0003C911797260F371F13968D919C9114970D
:104F0000680F791F15964C91159712968C910995FB
:104F10008AE08E9DF0018F9DF00D1124EF55FD4F1D
:104F20006581662351F020919A0330919B0386811D
:104F30009781820F931F0E9407270E948126F0E12C
:104F4000FA95F1F75A9852985A9A80E18A95F1F7B2
:104F50008AE08E9D80018F9D100D11240F551D4FED
:104F6000D80112966C911297662371F120919A03E1
:104F700030919B0313968D919C91820F931F0E94F9
:104F8000B326D801ED91FC91882311F088E001C08F
:104F900082E080830E9479260F90DF91CF91FF916C
:104FA000EF91BF91AF919F918F917F916F915F91A1
:104FB0004F913F912F911F910F91FF90EF900F9084
:104FC0000FBE0F901F901895ED91FC91DFCF0F93BE
:104FD0001F93CF93DF93EC0104970CF0A9C08AE0F4
:104FE0008C9FF0018D9FF00D1124EF55FD4F8081B6
:104FF0009181892B09F49CC0F894529A5A9885E0C3
:105000008A95F1F700008C2F869585709C2F9570FE
:10501000890F982F937086958695890F8E0193E05E
:10502000000F111F9A95E1F7082B0E94812600C0FE
:1050300068E0802F0E94E626A0E1AA95F1F7529839
:105040005A9A4A9B27C087E090E04A9925C08AE097
:105050008C9F80018D9F100D11240F551D4FF8015D
:1050600065816623A1F120919A0330919B0386818B
:105070009781820F931F0E94B326811128C0529AF4
:105080005A9AD801ED91FC9182E08083789482E075
:1050900090E016C000C0D5CF0197B9F4529A5A9A41
:1050A0008AE08C9FF0018D9FF00D1124EF55FD4F8C
:1050B0000190F081E02D81E08083789481E090E0A0
:1050C000DF91CF911F910F91089500C0BECF0E9434
:1050D0007926B0E2BA95F1F75A98529AE0E1EA954A
:1050E000F1F78AE08C9FF0018D9FF00D1124EF55B0
:1050F000FD4F6281662351F020919A0330919B030A
:1051000083819481820F931F0E9407270E9481262A
:105110008AE08C9FF0018D9FF00D1124EF55FD4F1B
:105120000190F081E02D1082789490E080E0C8CF6B
:1051300084E090E0C5CF90933C0580933B050895B3
:105140000E945F16811103C0809136050895E09199
:105150003B05F0913C05309721F00190F081E02D66
:10516000099480E00895E0913B05F0913C0530976B
:1051700099F02091DC02222359F02091630527FF4A
:1051800007C0DC012C9111962C93119725E02C93EC
:105190000280F381E02D09940895E0913B05F091A0
:1051A0003C05309739F022E0DC012C930480F58136
:1051B000E02D099408952091390530913A0528177A
:1051C000390771F090933A0580933905E0913B05DA
:1051D000F0913C05309721F00680F781E02D09948D
:1051E000089520913705309138052817390771F057
:1051F0009093380580933705E0913B05F0913C058D
:10520000309721F00084F185E02D09940895FC0188
:1052100032968091DC02882321F0809163059EE123
:1052200087FF96E080E0915008F4089521912223B1
:10523000D1F38F5FF8CF662301F12091DC022223A6
:10524000F1F02091630527FF1AC0462F4695469539
:1052500046954E3190F4677021E030E002C0220F95
:10526000331F6A95E2F7840F911DFC01828190E063
:105270002823392381E0232B69F480E00895FC0181
:10528000329608962191261721F0E817F907D1F7F1
:10529000F4CF81E008959C01FC0132969FEF80E0FD
:1052A0004191461751F09F3F19F4411101C0982FC9
:1052B0008F5F8630A9F79F3F09F40895290F311DAC
:1052C00097FD3A95F90162830895FC01329608969C
:1052D0002191261303C0DF0111971C92E817F907EB
:1052E000B9F70895E62FE695E695E695EE3168F470
:1052F000E80FF92FF11D677021E030E001C0220FA7
:105300006A95EAF78281822B82830895E62FE695DB
:10531000E695E695EE3170F4E80FF92FF11D677010
:1053200021E030E001C0220F6A95EAF720958281E2
:105330002823228308952091DC02222329F0209142
:10534000630527FD0C9472290C944B292091DC02F3
:10535000222329F02091630527FD0C9486290C94C3
:105360006529FC0132968091DC02882351F08091FE
:10537000630587FF06C08EE1DF011D928A95E9F77C
:10538000089586E0F9CF109280071092810710925D
:105390008207109283070895CF92DF92EF92FF92D7
:1053A0006B017C010E945F1681110EC00E94932A3E
:1053B000C61AD70AE80AF90AC0928007D092810774
:1053C000E0928207F0928307FF90EF90DF90CF90FA
:1053D00008950F931F930E945F16882321F01F9159
:1053E0000F910C94932A0E94932A009180071091A8
:1053F00081072091820730918307600F711F821F00
:10540000931F1F910F9108950895089508950C9486
:10541000062A80918C07843049F10E94072A80E097
:105420000E94570710923D0588E190E020E40FB6F6
:10543000F894A895809360000FBE2093600083B716
:10544000817F846083BF83B7816083BF78948895B0
:1054500083B78E7F83BF0FB6F894A89580916000C4
:10546000886180936000109260000FBE08950895D7
:10547000CF930E94052A0E94D5150E94372AC0E0CA
:105480008C2F0E94A814811105C0CF5FC830C1F7CE
:10549000CF91089581E0FCCF08950C944C2A0E948E
:1054A000C30A0E94A0280E9457070C944D2A1F92FD
:1054B0001FB61F9211248F939F93AF93BF93809138
:1054C0003D05811113C08091840790918507A091BB
:1054D0008607B09187074196A11DB11D809384076F
:1054E00090938507A0938607B0938707BF91AF91EC
:1054F0009F918F911F901FBE1F90189582E084BDD1
:1055000093E095BD9AEF97BD80936E0008952FB7F5
:10551000F8948091840790918507A0918607B091B7
:1055200087072FBF08952FB7F89460918407709173
:10553000850780918607909187072FBF08959C016A
:105540004FB7F8948091840790918507A0918607C2
:10555000B09187074FBF821B930B0895CF92DF92C4
:10556000EF92FF922FB7F894C0908407D0908507F0
:10557000E0908607F09087072FBFA7019601261BB2
:10558000370B480B590BCA01B901FF90EF90DF9020
:10559000CF90089578941F921FB61F9211248F9375
:1055A0009F93AF93BF938091840790918507A091BB
:1055B0008607B09187070196A11DB11D80938407CE
:1055C00090938507A0938607B0938707BF91AF910B
:1055D0009F918F911F901FBE1F90189587E797E7A7
:1055E000909301088093000888E19AE00FB6F89440
:1055F000A895809360000FBE90936000FFCF9093BA
:10560000A5038093A4030895809161050895909166
:105610008C07943031F580933E057093400560937C
:105620003F0582E08093E9008FEF9091E800815080
:1056300095FD06C095ED9A95F1F700008111F5CF23
:105640008091E80085FF0DC050E040E063E070E02D
:105650008EE395E00E94262D8091E8008E7780935E
:10566000E8000895BC0184E00C94072BBC0183E0A2
:105670000C94072B9C0182E08093E9009FEF8091BE
:10568000E800915085FD06C085ED8A95F1F7000090
:105690009111F5CF8091E80085FF0CC050E040E00B
:1056A00066E070E0C9010E94262D8091E8008E77A7
:1056B0008093E8000895CF93DF93EC018091DC02A2
:1056C0008823B1F18091630587FF32C060E282E0F8
:1056D0008093E9008FEF9091E800815095FD06C01E
:1056E00095ED9A95F1F700008111F5CF8091E800D2
:1056F00085FF1BC08091DC0270E050E040E081112A
:1057000004C050E040E068E070E0CE010E94262D29
:105710008091E8008E778093E80080E2FE01A1E4AA
:10572000B5E001900D928A95E1F7DF91CF91089550
:1057300068E081E0CDCF80918B07811109C00E9484
:10574000B62E0E94132F8091E20084608093E200C5
:10575000089510928B07089508950895089542E0E2
:1057600061EC81E00E94322E42E261EC82E00C9416
:10577000322E80918E07833009F45FC030F481307F
:10578000C1F1823009F49BC008958A3009F487C0C2
:105790008B3009F46DC0893009F04EC080918D07BF
:1057A000813209F049C08091910790919207029748
:1057B00008F042C08091E800877F8093E8008091E4
:1057C000E80082FF35C09091F3008091F2000297CB
:1057D00029F48091F1008B7F813021F48091F100D8
:1057E000809361058091E8008B778093E8000C94AA
:1057F000662E80918D07813AF9F48091E800877FC9
:105800008093E8008091910790919207892B61F431
:1058100060E281E495E070E00E94752D8091E800DF
:105820008B778093E800089560E090E080E0F3CF0C
:1058300080918C078111C3CF089580918D07813AA3
:10584000D9F78091910790919207892BA9F78091C0
:10585000E800877F8093E8008091E80080FFFCCF1C
:105860008091DC028093F1008091E8008E77BDCFBB
:1058700080918D07813201F7809191079091920775
:10588000892BD1F68091E800877F8093E8000E9401
:10589000662E80918F078093DC020C94C30A80915E
:1058A0008D07813249F68091E800877F8093E80078
:1058B0000E94662E809190078093620508958091E2
:1058C0008D07813A09F0B8CF8091E800877F8093F7
:1058D000E8008091E80080FFFCCF80916205C2CF94
:1058E00084B7877F84BF0FB6F894A8958091600035
:1058F000886180936000109260000FBE80E890E0A5
:105900000FB6F89480936100909361000FBE0C94E1
:10591000AE110E94B62E0E94132FE2EEF0E08081BD
:105920008460808378940E949C310E94C01182ED33
:1059300092E00C949B2880918C07853031F4809103
:105940008C07853021F00E944F2A0C94CD110E94C3
:10595000092A80918A07882391F30E94382A882394
:1059600071F30E94102D0E94C30AE9CF0C94B82C49
:10597000292F33272330310519F168F421303105FF
:1059800009F444C02230310509F445C090E080E0BC
:1059900030E020E025C02132310549F122323105C5
:1059A000A9F780E490E02EE339E061157105C1F0BC
:1059B00086EB90E028E838E06130710589F0E6CFA9
:1059C00099278130910581F0009729F00297F1F62F
:1059D000E7E1F8E002C0E7E3F8E0849190E09F019E
:1059E000FA01318320830895E5E2F8E0F6CF89E0FB
:1059F00090E02DE438E06115710591F389E090E0C5
:105A000026E638E06130710559F3C0CF82E190E0BD
:105A100026E738E0E5CF8BE390E02BE338E0E0CFFA
:105A200080E189BD82E189BD09B400FEFDCF80918E
:105A3000D8008F7D8093D8008091E00082608093B1
:105A4000E0008091E00081FDFCCF0895AF92BF920D
:105A5000CF92DF92FF920F931F93CF93DF936C014E
:105A6000EB018A010E94852EF82E811123C00115B9
:105A7000110539F0F80180819181C81BD90BC80E3E
:105A8000D91EB12CA12C2097A9F08091E80085FDAA
:105A900022C08091E8008E778093E80001151105FF
:105AA000A1F0F80180819181A80EB91EB182A08277
:105AB00085E0F82E8F2DDF91CF911F910F91FF90F0
:105AC000DF90CF90BF90AF9008950E94852E8823DD
:105AD000D1F2F82EEFCFF60181916F018093F100A2
